{
  "contractName": "conversionAction",
  "abi": [
    {
      "inputs": [
        {
          "name": "contract_id",
          "type": "int256"
        }
      ],
      "payable": false,
      "stateMutability": "nonpayable",
      "type": "constructor"
    },
    {
      "anonymous": false,
      "inputs": [
        {
          "indexed": false,
          "name": "action",
          "type": "int256"
        },
        {
          "indexed": false,
          "name": "hits",
          "type": "int256"
        }
      ],
      "name": "settingAction",
      "type": "event"
    },
    {
      "constant": false,
      "inputs": [
        {
          "name": "action",
          "type": "int256"
        },
        {
          "name": "hits",
          "type": "int256"
        }
      ],
      "name": "setAction",
      "outputs": [],
      "payable": false,
      "stateMutability": "nonpayable",
      "type": "function"
    },
    {
      "constant": true,
      "inputs": [],
      "name": "getAction",
      "outputs": [
        {
          "name": "action",
          "type": "int256"
        },
        {
          "name": "hits",
          "type": "int256"
        }
      ],
      "payable": false,
      "stateMutability": "view",
      "type": "function"
    },
    {
      "constant": true,
      "inputs": [],
      "name": "getId",
      "outputs": [
        {
          "name": "contract_id",
          "type": "int256"
        }
      ],
      "payable": false,
      "stateMutability": "view",
      "type": "function"
    }
  ],
  "bytecode": "0x608060405234801561001057600080fd5b506040516020806101f183398101806040528101908080519060200190929190505050809050506101ab806100466000396000f300608060405260043610610057576000357c0100000000000000000000000000000000000000000000000000000000900463ffffffff16806326e1aab71461005c5780635d1ca6311461008e57806390890bfc146100b9575b600080fd5b34801561006857600080fd5b506100716100f0565b604051808381526020018281526020019250505060405180910390f35b34801561009a57600080fd5b506100a3610106565b6040518082815260200191505060405180910390f35b3480156100c557600080fd5b506100ee600480360381019080803590602001909291908035906020019092919050505061010e565b005b6000806001600001546001800154915091509091565b600080905090565b7fe6594928472ce49b22f60e63fd5ab1017f7045bcfdce128b6ce3a923421caa148282604051808381526020018281526020019250505060405180910390a16040805190810160405280838152602001828152506001600082015181600001556020820151816001015590505050505600a165627a7a72305820674132a164680d45ebc90e78d02c6d4a7f69120fb2387d68c7bcc98d77068f360029",
  "source": "pragma solidity ^0.4.18;\r\n\r\ncontract conversionAction{\r\n\r\n    event settingAction(int action, int hits);\r\n\r\n    int private contract_id; // interact with RDB's contract indendifier\r\n\r\n    struct Action {\r\n      int action;\r\n      int hits;\r\n    }\r\n\r\n    Action actions;\r\n\r\n    constructor(int contract_id) public{\r\n        contract_id = contract_id;\r\n    }\r\n\r\n    function setAction(int action, int hits) public{\r\n        emit settingAction(action, hits);\r\n        actions = Action({\r\n          action : action,\r\n          hits : hits\r\n          });\r\n    }\r\n\r\n    function getAction() public view returns (int action, int hits) {\r\n        return (actions.action, actions.hits);\r\n    }\r\n\r\n    function getId() public view returns (int contract_id) {\r\n      return (contract_id);\r\n    }\r\n\r\n}\r\n",
  "sourcePath": "C:\\Users\\leesd\\influanswer\\Server\\contracts\\conversionAction.sol",
  "compiler": {
    "name": "solc",
    "version": "0.4.24+commit.e67f0147.Emscripten.clang"
  },
  "schemaVersion": "2.0.1",
  "updatedAt": "2018-11-18T20:14:56.660Z"
}