{
  "contractName": "conversionAction",
  "abi": [
    {
      "constant": true,
      "inputs": [],
      "name": "action",
      "outputs": [
        {
          "name": "",
          "type": "int256"
        }
      ],
      "payable": false,
      "stateMutability": "view",
      "type": "function"
    },
    {
      "constant": true,
      "inputs": [],
      "name": "hits",
      "outputs": [
        {
          "name": "",
          "type": "int256"
        }
      ],
      "payable": false,
      "stateMutability": "view",
      "type": "function"
    },
    {
      "inputs": [
        {
          "name": "contract_id",
          "type": "int256"
        }
      ],
      "payable": false,
      "stateMutability": "nonpayable",
      "type": "constructor"
    },
    {
      "anonymous": false,
      "inputs": [
        {
          "indexed": false,
          "name": "action",
          "type": "int256"
        },
        {
          "indexed": false,
          "name": "hits",
          "type": "int256"
        }
      ],
      "name": "settingAction",
      "type": "event"
    },
    {
      "constant": false,
      "inputs": [
        {
          "name": "action",
          "type": "int256"
        },
        {
          "name": "hits",
          "type": "int256"
        }
      ],
      "name": "setAction",
      "outputs": [],
      "payable": false,
      "stateMutability": "nonpayable",
      "type": "function"
    },
    {
      "constant": true,
      "inputs": [],
      "name": "getAction",
      "outputs": [
        {
          "name": "action",
          "type": "int256"
        },
        {
          "name": "hits",
          "type": "int256"
        }
      ],
      "payable": false,
      "stateMutability": "view",
      "type": "function"
    },
    {
      "constant": true,
      "inputs": [],
      "name": "getId",
      "outputs": [
        {
          "name": "contract_id",
          "type": "int256"
        }
      ],
      "payable": false,
      "stateMutability": "view",
      "type": "function"
    }
  ],
  "bytecode": "0x608060405234801561001057600080fd5b5060405160208061023883398101806040528101908080519060200190929190505050809050506101f2806100466000396000f30060806040526004361061006d576000357c0100000000000000000000000000000000000000000000000000000000900463ffffffff1680630a7a1c4d1461007257806326e1aab71461009d5780635d1ca631146100cf57806390890bfc146100fa578063cf2470f614610131575b600080fd5b34801561007e57600080fd5b5061008761015c565b6040518082815260200191505060405180910390f35b3480156100a957600080fd5b506100b2610162565b604051808381526020018281526020019250505060405180910390f35b3480156100db57600080fd5b506100e461016f565b6040518082815260200191505060405180910390f35b34801561010657600080fd5b5061012f6004803603810190808035906020019092919080359060200190929190505050610177565b005b34801561013d57600080fd5b506101466101c0565b6040518082815260200191505060405180910390f35b60015481565b6000808181915091509091565b600080905090565b7fe6594928472ce49b22f60e63fd5ab1017f7045bcfdce128b6ce3a923421caa148282604051808381526020018281526020019250505060405180910390a18191508090505050565b600254815600a165627a7a72305820238761651390fc2aa7c9c806ad256c87fb4c757a8f5686fd2b246df26e7be9f10029",
  "source": "pragma solidity ^0.4.18;\n\ncontract conversionAction{\n\n    event settingAction(int action, int hits);\n\n    int private contract_id; // interact with RDB's contract indendifier\n    int public action;\n    int public hits;\n\n    constructor(int contract_id) public{\n        contract_id = contract_id;\n    }\n\n    function setAction(int action, int hits) public{\n        emit settingAction(action, hits);\n        action = action;\n        hits = hits;\n    }\n\n    function getAction() public view returns (int action, int hits) {\n        return (action, hits);\n    }\n\n    function getId() public view returns (int contract_id) {\n      return (contract_id);\n    }\n\n}\n",
  "sourcePath": "C:\\Users\\leesd\\influanswer\\Server\\contracts\\conversionAction.sol",
  "compiler": {
    "name": "solc",
    "version": "0.4.24+commit.e67f0147.Emscripten.clang"
  },
  "schemaVersion": "2.0.1",
  "updatedAt": "2018-11-02T14:19:02.722Z"
}