{
  "contractName": "conversionAction",
  "abi": [
    {
      "inputs": [
        {
          "name": "idx",
          "type": "int256"
        }
      ],
      "payable": false,
      "stateMutability": "nonpayable",
      "type": "constructor"
    },
    {
      "anonymous": false,
      "inputs": [
        {
          "indexed": false,
          "name": "download",
          "type": "int256"
        },
        {
          "indexed": false,
          "name": "signUp",
          "type": "int256"
        },
        {
          "indexed": false,
          "name": "hits",
          "type": "int256"
        },
        {
          "indexed": false,
          "name": "buy",
          "type": "int256"
        }
      ],
      "name": "settingAction",
      "type": "event"
    },
    {
      "constant": false,
      "inputs": [
        {
          "name": "download",
          "type": "int256"
        },
        {
          "name": "signUp",
          "type": "int256"
        },
        {
          "name": "hits",
          "type": "int256"
        },
        {
          "name": "buy",
          "type": "int256"
        }
      ],
      "name": "setAction",
      "outputs": [],
      "payable": false,
      "stateMutability": "nonpayable",
      "type": "function"
    },
    {
      "constant": true,
      "inputs": [],
      "name": "getAction",
      "outputs": [
        {
          "name": "download",
          "type": "int256"
        },
        {
          "name": "signUp",
          "type": "int256"
        },
        {
          "name": "hits",
          "type": "int256"
        },
        {
          "name": "buy",
          "type": "int256"
        }
      ],
      "payable": false,
      "stateMutability": "view",
      "type": "function"
    }
  ],
  "bytecode": "0x608060405234801561001057600080fd5b506040516020806102218339810180604052810190808051906020019092919050505080600081905550506101d78061004a6000396000f30060806040526004361061004c576000357c0100000000000000000000000000000000000000000000000000000000900463ffffffff16806326e1aab71461005157806340f949b614610091575b600080fd5b34801561005d57600080fd5b506100666100dc565b6040518085815260200184815260200183815260200182815260200194505050505060405180910390f35b34801561009d57600080fd5b506100da60048036038101908080359060200190929190803590602001909291908035906020019092919080359060200190929190505050610107565b005b6000806000806001600001546001800154600160020154600160030154935093509350935090919293565b7f41557c5b623313a88b40832cf60069f279a6c723c47e63980837037a57e7a81a848484846040518085815260200184815260200183815260200182815260200194505050505060405180910390a160806040519081016040528085815260200184815260200183815260200182815250600160008201518160000155602082015181600101556040820151816002015560608201518160030155905050505050505600a165627a7a72305820f9c4a5b7afdfb33a290f97801680307377fccc687fcb3171020a5075c4ebd4c30029",
  "source": "pragma solidity ^0.4.18;\n\ncontract conversionAction{\n\n    event settingAction(int download, int signUp, int hits, int buy);\n\n    int private contract_idx; // interact with RDB's contract indendifier\n\n    struct Action {\n      int download;\n      int signUp;\n      int hits;\n      int buy;\n    }\n\n    Action action;\n\n    constructor(int idx) public{\n        contract_idx = idx;\n    }\n\n    function setAction(int download, int signUp, int hits, int buy) public{\n        emit settingAction(download, signUp, hits, buy);\n        action = Action({\n          download : download,\n          signUp : signUp,\n          hits : hits,\n          buy : buy\n        });\n    }\n\n    function getAction() public view returns (int download, int signUp, int hits, int buy) {\n        return (action.download, action.signUp, action.hits, action.buy);\n    }\n\n}\n",
  "sourcePath": "C:\\Users\\leesd\\nodeJS\\dappws2\\truffle_practice\\contracts\\conversionAction.sol",
  "compiler": {
    "name": "solc",
    "version": "0.4.24+commit.e67f0147.Emscripten.clang"
  },
  "schemaVersion": "2.0.1",
  "updatedAt": "2018-10-29T14:52:16.082Z"
}